S0240000415453414D5233345F4C4F52415F5032505F53494D504C455F4150502E73726563AA
S21400000070320020958B0000918B0000918B0000D1
S21400001000000000000000000000000000000000DB
S214000020000000000000000000000000918B0000AF
S2140000300000000000000000918B0000918B000083
S214000040918B0000918B0000910400000982000053
S214000050918B0000918B0000918B0000918B00002B
S2140000605D8100006D8100007D8100008D810000B3
S2140000709D810000AD810000918B0000918B0000F7
S214000080918B000025750000357500004575000051
S2140000905575000065750000918B0000918B00007F
S2140000A0918B0000918B00005D820000918B000018
S2140000B00000000010B5064C2378002B07D1054B36
S2140000C0002B02D0044800E000BF0123237010BDBF
S2140000D07000002000000000EC310100084B10B555
S2140000E0002B03D00749084800E000BF0748036814
S2140000F0002B00D110BD064B002BFBD09847F9E72C
S2140001000000000074000020EC310100EC3101001A
S2140001100000000001230370002343708370C37047
S21400012003710F2242718371C371037270470268B4
S214000130136802210B431360704703230268537150
S2140001400268D3710268136802218B4313607047FC
S21400015070B504000D00D3780371216053784371A5
S2140001601379837113789B029178C9020B435178F7
S21400017009020B43D17889000B43117949010B43DF
S21400018091798903D07940030143107A0003014333
S21400019052791204F020000302400A4313431E0063
S2140001A02B689B0701D42E6070BD2000034B984738
S2140001B02E602000024B9847F6E7C0463B01000041
S2140001C02F01000070B5054CE56980239B012B4389
S2140001D0E36101230B60024B984770BD00040040AA
S2140001E05101000070B54379012B05D0002B10D0CB
S2140001F0022B0DD1082500E00625002310C99A1C05
S21400020092000668B446624454600133AB42F5D3AC
S21400021070BD0425F1E7000010B5002302681372D4
S2140002200F4B426813400F4A93420AD00379032BC0
S2140002300ED00C001034036804C99A638C42FAD1BD
S21400024010BD03680A689A6303684A689A63F7E70A
S2140002508379023B012BECD803680A689A63EFE7C0
S214000260FF00FF0003000100002302681372104B1A
S214000270426813400F4A93420AD00379032B0ED0EC
S2140002800A00103203689B6B08C18A42FAD1704795
S21400029003689B6B0B6003689B6B4B60F7E7837987
S2140002A0023B012BECD803689B6B0B60EFE7C04664
S2140002B0FF00FF0003000100064A137802210B43EB
S2140002C01370012053681942FCD153681842F9D1C3
S2140002D07047C04600240040064A137802218B432C
S2140002E01370012053681942FCD153681842F9D1A3
S2140002F07047C0460024004000B583B0174A5169D5
S21400030080239B000B43536101A900230B7003203D
S214000310134B98470320134B9847134A1378012131
S2140003200B4313700131012053681942FCD1536806
S2140003301842F9D10C4A137810218B4313700B4BDB
S21400034019004031002204C38B42FCD10822084B1E
S2140003501A60084B984703B000BDC0460004004032
S214000360358A0000C589000000240040B005002042
S21400037000E100E0B90200000023036043600122B0
S214000380027283720132C27243727047F0B583B054
S21400039005000C001C4B984701A900234B70CB703E
S2140003A023790B70237A8B702078184B984700219E
S2140003B01F2D00D8164907222A409200E77AA37A12
S2140003C0002B01D008231F43EB089B00CB18D869ED
S2140003D00F269640B04397403A000243DA61637AAC
S2140003E0002B0BD18A690123AB40DB431B041B0C9B
S2140003F013408B61074B984703B0F0BD8A69012311
S214000400AB4013438B61F5E7D9020000318B000047
S21400041000240040B902000003681869431E984192
S214000420C0B2704770B504000668084D2000A847A3
S2140004300028FBD12379002B04D00020012B00D10B
S214000440B06970BD308B80B2FBE7C046190400006F
S21400045010B502680A2910D0072911D980235B003D
S2140004600C00083CA340C024A40023401381C38E84
S21400047001228A409343C38610BD044B1381F6E7DE
S21400048001248C40FF2323401381F0E70080FFFF08
S214000490F8B5DE4657464E464546E0B52B4B1B683C
S2140004A09A461E68DB8E5246928E1A409046B28955
S2140004B0738913401AB2002A08DBFF271F402AD090
S2140004C0002401239946FE339B4614E043465B0511
S2140004D007D41F4BB3813CBC90469946A246AB4618
S2140004E0F8BD53461B6B9847F3E75B461D40B58146
S2140004F00134082CEFD023004D46A5402F42F4D0FF
S2140005004246224149461142EFD002339B005246F2
S2140005109B589847E9E7DA050AD54346DB0503D436
S21400052080235B00B381D6E753469B6A9847F7E77C
S2140005309B05D0D543469B0503D480239B00B381FF
S214000540C9E75346DB6A9847F7E7C046F005002040
S2140005500080FFFFF0B5DE4657464E464546E0B5FE
S21400056087B08046049116001F0000220023002159
S2140005708B463F2401202100009601975C46039499
S2140005804446059413E02024641A0500E540A84676
S21400059014E0009C019D121BAB415C464D462C436B
S2140005A0A346039C45462C430394013925D32024B7
S2140005B064420C19E7D40500A540A84604008C4008
S2140005C0A14692185B4114001D00059E4F463E4012
S2140005D0B446049E47463E40B246664657463E43AD
S2140005E003D00600264332002B00009C019D9D424E
S2140005F0DBD8CED19442D8D8CBE7039B5846190017
S21400060007B03CBC90469946A246AB46F0BD10B536
S214000610490840230024814202D2180010BD1C0065
S214000620091A631C9BB28842F9D94023FF2CF4D8E0
S21400063014800023F1E70000F0B583B00F00160029
S21400064008AA117804004C434022BC4202D910008C
S21400065003B0F0BD002B14D1020008000021194C95
S214000660A04701003A0000230020174CA0470022B4
S2140006700123121A8B41120C1B041A4332800022EB
S214000680E5E70022012BF9D10A00002300210D4CDA
S214000690A04702000B0000920193380000210A4C8C
S2140006A0A047050080239B0140229842CFD8790FAF
S2140006B0F800009A019BA047EA00821AD2B25203C1
S2140006C02A43DBE7ADF200005505000010B582B006
S2140006D004000E4B1B78002B07D0002905D10B4BCE
S2140006E05B78834210D01D200CE001A90C7011200D
S2140006F0074B98471120074B9847044B5C70012224
S2140007001A70002002B010BD0020FBE78C0000200D
S214000710358A0000C58900003C4B984232D00AD981
S2140007203B4B98424ED03B4B984255D03A4B984262
S21400073038D0002070478423DB0598420CD0374B16
S2140007409842F6D1012917D0002957D0022915D092
S214000750032915D00020EDE7012907D000294BD04A
S214000760022905D0032905D00020E3E72C48E1E75D
S2140007702C48DFE72C48DDE72C48DBE72C48D9E798
S2140007802C48D7E7012907D0002939D0022905D0FF
S214000790032905D00020CDE72748CBE72748C9E73F
S2140007A02748C7E7012907D000292BD0022905D002
S2140007B0032905D00020BDE72248BBE72248B9E759
S2140007C02248B7E7022903D0032903D00020B1E767
S2140007D01F48AFE71F48ADE7012907D0002913D00F
S2140007E0022905D0032905D00020A3E71A48A1E76F
S2140007F01A489FE71A489DE71A489BE7032099E79F
S214000800194897E7194895E7194893E70008004202
S2140008100010004200040043000C004200040042A6
S21400082003000500030006000300070003000100A4
S21400083003001E0003001F000300090003000A0057
S21400084003000B0003001100030012000300130056
S21400085003000E0003000F0003001700030018003B
S2140008600300190003000400030008000300100042
S2140008700300160030B587B00B4B6A4632CB32C247
S21400088032CB32C2009B83420BD001239A006946CA
S2140008905258824206D00133062BF7D1002007B00B
S2140008A030BD0023D8B2FAE78424010030B587B003
S2140008B001A90C4B0A0032CB32C212CB12C2019BEA
S2140008C098420BD0012301A99A005258824206D0C2
S2140008D00133052BF8D1002007B030BD0023D8B275
S2140008E0FAE7C046C4240100F0B5C64600B58EB08F
S2140008F004000D0016000800AE4B984780460CAB6F
S2140009001B221A705A7001329A70DA7001321A710C
S21400091002A9A94B14330A0083CB83C283CB83C2BC
S21400092083CB83C21B6813600023A360E36023614C
S21400093063612376637643469A00A04BD4502560C5
S2140009403423F35CA376F378082B08D023712B6846
S2140009500520DB0708D50EB004BC9046F0BD172076
S2140009604246D207F7D4F1E7EB7A17309B07F2D46A
S2140009702B689B07EFD4337C002B12D1337F002BE0
S2140009801BD143465A0002A9531C9B0058584346A5
S214000990DB005B58D9B2042923D88B008849CB5892
S2140009A09F4601A901238B700022CA70327E0A700E
S2140009B04B70307D834B9847E0E701A901238B708D
S2140009C00022CA702432B21812780A704B701F3395
S2140009D0F31818787B4B9847D3E77B494B69184345
S2140009E04861F378082B00D186E033786A461370A6
S2140009F00CAB42469F5C69463800744B98473800FB
S214000A00734B9847F378F2791343B2881343727A9C
S214000A10002A02D0802252021343B27A002A02D061
S214000A20802292021343F27A002A02D080225203D6
S214000A301343327B002A02D080229203134371783C
S214000A408901B278D2011143194322681369002B39
S214000A50FCD1296022681369002BFCD1B3792B7373
S214000A60717B4B1E99418900B37B002B01D001237B
S214000A70194322681369002BFCD1FF332B71002920
S214000A8004D022681369002BFCD16971337A6B732A
S214000A9022681369002BFCD12379042B59D0082B2C
S214000AA074D01720002B00D055E71369002BFCD11B
S214000AB0338DAB8222681369002BFCD1738DAB8318
S214000AC022681369002BFCD1B38DEB83002042E72C
S214000AD03D498B691843886183E73B49CB691843D6
S214000AE0C8617EE738490B6A1843086279E7364BD7
S214000AF0596A0843586274E743460133042B00DD05
S214000B0073E702ABD11C8900C95802329200D35851
S214000B10DAB2042A00D968E793002E4AD3589F46D3
S214000B20294A5369194351615FE7274A9369194374
S214000B3091615AE7244AD3691943D16155E7224A9D
S214000B40136A1943116250E71F4B5A6A11435962E0
S214000B504BE71369002BFCD12833F35C2B75226816
S214000B601369002BFCD12933F35CEB7622681369FA
S214000B70002BFCD12A33F35C2B7722681369002BF9
S214000B80FCD12B33F35C6B770020E4E61369002B73
S214000B90FCD1B36A6B6122681369002BFCD1F36A3F
S214000BA0EB6122681369002BFCD1336B2B620020AB
S214000BB0D1E6C046AD080000C4240100840D002024
S214000BC09C240100318B000000040040358A0000A0
S214000BD0C5890000B024010002681369002BFCD10F
S214000BE0137101680B69002BFCD1803353710268C6
S214000BF01369002BFCD10379042B05D0082B09D0F0
S214000C000020002B03D07047107DC0B2FBE7908A0F
S214000C1080B2F8E75069F6E710B504682369002B40
S214000C20FCD10379042B06D0082B28D0002B13D038
S214000C301723180010BD17230129FAD8837E002B2E
S214000C4005D0D2B2611830310A700023F1E7D2B273
S214000C50641822770023ECE717230129E9D8837E5E
S214000C60002B05D092B2183149000A530023E0E762
S214000C7092B20C3149006418A2800023D9E71723EA
S214000C800129D6D8837E002B05D106318900641849
S214000C9062600023CDE70C3189000A510023C8E7C3
S214000CA0F0B5C64600B50C00904600280FD1002AC5
S214000CB011DD8F18094E0A4D306821002B689847C1
S214000CC00134BC42F8D1404604BC9046F0BD012336
S214000CD05B429846F7E78046F5E7C046FC050020ED
S214000CE0F4050020F0B5C64600B50E001500013824
S214000CF0022810D8002A11D000240C4B98460C4F1E
S214000D0043461868315D3B689847002808DB013485
S214000D10A542F5D106E00124644203E0140001E098
S214000D2001246442200004BC9046F0BDFC0500206F
S214000D30F805002070B582B005000E0000226B4654
S214000D40DA80064C6B46991D2800A0470028F9D18A
S214000D506B4606331B88337002B070BD0579000001
S214000D6070B505008CB2034E21002800B04700285D
S214000D70FAD170BDD978000010B582B06B46DC1D84
S214000D80012221000F48104B984772B6BFF35F8FC1
S214000D9000220E4B1A700E4B1B7821780D4AD15448
S214000DA09B2B0AD001330A4A13700122074B1A7094
S214000DB0BFF35F8F62B602B010BD0022044B1A70FC
S214000DC0F3E7C04690000020757900000800002078
S214000DD061010020C4000020F0B591B08023DB053F
S214000DE0009300230193FF2269460A8100228B723A
S214000DF0CB72012424216846445401314454013105
S214000E004354013143540A9305314354013143544A
S214000E1005930382C376027602774276132383769F
S214000E20427780235B0303932F4B0C932F4B0D933A
S214000E3001235B420E930F93E1235B0208932C4D34
S214000E402C4B1D602C4A2D4B1A602D4A2D4B1A60D8
S214000E506A468421C90528002B4B98472B4F3B68D0
S214000E60986800212A4EB0473B6858680021B04772
S214000E702E683000274B98471F2318408440264B87
S214000E801C602A68D369002BFCD133680222134306
S214000E903360174B1B68DA69002AFCD15968802238
S214000EA052020A435A600121114AD171DA69002AB6
S214000EB0FCD1DA69002AFCD15968802292020A43E2
S214000EC05A6001210A4A9171DA69002AFCD1134955
S214000ED00020134B984704228423DB059A75FC32C6
S214000EE00D4B1A6011B0F0BD0300040003000500AE
S214000EF090000020FC050020610D0000F805002091
S214000F00350D0000F4050020757500000C0000206B
S214000F10D51401002D81000000E100E0790D0000ED
S214000F20F180000070B502001F4B1C781F4B1B7829
S214000F309C421ED3E31A1E4803701D4B18780028E7
S214000F4030D09B281BD9194B1C709C20184B18704E
S214000F50081C9C2901D9174B1878C0B2002821D04C
S214000F60124B1B78441EE4B201341419124D0026AD
S214000F700EE020006438C31A0D480370DDE7031C3A
S214000F80884200D90B1CD8B2E8E73300944207D059
S214000F90E95C117001329B2BF7D00133DBB2F5E729
S214000FA0024A137070BDC046610100206001002037
S214000FB06201002000250100C400002000B583B0B7
S214000FC001216B46D81D054B9847002803DD6B466C
S214000FD0D87903B000BD01204042FAE7250F000093
S214000FE070B5002822D11448047D0520E40700D4FB
S214000FF070BD2024FF3410480483002B19D0012034
S2140010008143002000255E1E05E0023080B2050008
S2140010100231834208D90C88A4B25455AE42F4D9A2
S2140010205519240A6C70F0E70020E1E708204042DA
S214001030DEE70020DCE7C04600400041F0B5DE46B3
S21400104057464E464546E0B5C5B0002868D19BB227
S2140010509A468846FF23994300915346002B6BD04F
S21400106004AB5B1A0293354E354B9B4603923AE02F
S2140010700133BB420ED2002AFAD09942F8D1039D22
S2140010802878029CE0540131013A92B228000130DF
S2140010900390EDE792468846019C2A4B98470098B5
S2140010A0D8470528FBD000283DD1009D264F019447
S2140010B0009BEC1A04AB9C466444402221002800A6
S2140010C0B8470528F9D000282DD14035019BAB4202
S2140010D0EED11E4B9847029B013BFF3B02930095C7
S2140010E05346002B28D0009B5F1CFF371C00B946D8
S2140010F01F00E51B04AB9C466544402229002000E7
S214001100B0470528F9D000280DD140344C45F0D121
S2140011104F46009B9F42C0D9524641460194AAE7DB
S2140011200820404201E00820404245B03CBC9046C2
S2140011309946A246AB46F0BD0020F6E7BD84000007
S2140011403D850000C5850000E5830000058600009B
S21400115010B5014B984710BDA592000010B5014B85
S214001160984710BD5D92000010B50248024B9847A4
S21400117080B210BD38060020D90B0000034B1021AA
S2140011801A6811725A7E8A435A76704738060020CB
S21400119010B50A4C20680A4B98470A4B1B5C1F2266
S2140011A01A4001239340084A1360637E10221343BB
S2140011B06376236810225A7210BDC0463806002097
S2140011C0AD0800000425010000E100E010B50200B3
S2140011D000210248024B984710BDC0463806002042
S2140011E0190C000082B0EFF310835A42534101936A
S2140011F072B6BFF35F8F0022024B1A700198C0B21E
S21400120002B0704708000020002805D00122034BDA
S2140012101A70BFF35F8F62B67047C04608000020A2
S21400122070B5334A002100231170D17000209180E0
S2140012309071D37153709370137253729372D3720A
S214001240137393735373137451619161137711621F
S2140012505162118591853423D054353B5385254CF6
S21400126025492000254B9847002225492000254D7A
S214001270A847022224492000A8472068234B984705
S214001280234B1A5C1F23134001210A009A40214B6E
S2140012901A60637E012213436376226851721369D3
S2140012A0002BFCD1136802210B43136000201A4B5D
S2140012B098471A4DA8471A491A4B9847041C1A4BC8
S2140012C09847A847011C201C184B9847FC21890505
S2140012D0174B9847002805D0FE218905201C154B82
S2140012E09847041C201C104B9847C0B270BDC046DF
S2140012F0000600203806002000200042E908000012
S2140013005D1100008D74000051110000AD08000052
S2140013100425010000E100E0598900004D020100AB
S2140013200024744915F8000001F3000035FE0000A3
S21400133059F20000F1F40000F0B5D6464F4680B5ED
S21400134083B00192002902D1831F012B2AD90723DB
S21400135099461C00044001260E4001202B4B98475E
S2140013600500070043B29A464B4603405246D20F4A
S21400137096420AD0002B1AD1002E1ED178272F4075
S21400138039000120224B98470023A3420AD0002CA4
S21400139030D0019B012B16D0F82139402143012083
S2140013A01B4B984703B00CBC91469A46F0BDF821FB
S2140013B001400120164B9847DEE7782753461F402A
S2140013C080210F43DCE74120104B9847002E0ED1BA
S2140013D030210143C9B241200D4DA847F8213940BC
S2140013E021430120A84701200A4B9847DAE7CF217E
S2140013F00140F0E7F82139400120054B9847019B52
S214001400012BCFD10120044B9847CBE72573000072
S214001410FD720000058300005974000000B583B01B
S21400142012200D4B98470D4BDB8A002B07D00B4B39
S2140014301B69002B03D00A4A1278920605D40221B3
S2140014401220084B984703B000BD01A920209847FA
S2140014500198054B9847F2E72573000054060020D4
S2140014606A120020FD7200000DD80000F8B50020BA
S2140014701A4B98471A4B9847012201210020194C15
S214001480A047FF211120184B984701220121052073
S214001490A04710240025154F154E0120B8472C20D4
S2140014A0B047012318406D000543ADB2013CE4B2DD
S2140014B0002CF2D100200F4B98470122012100207A
S2140014C0084B9847FF211220074CA0470021112007
S2140014D0A047094B98472800F8BDC046D1E0000059
S2140014E075E5000039130000FD7200005974000015
S2140014F025730000F9E10000B9E6000010B504000D
S2140015003423114AD35C012B03D00620002B12D0C3
S21400151010BD0E4B12689A4206D91B200C4B9847FA
S2140015209D3820800020F3E71B20094B9847A438FD
S21400153020800020ECE70B30054B98474008C3B2EC
S2140015405B4223800020E3E7540600207F136133CC
S2140015502573000010B51020014B984710BDC046FB
S214001560D1150000F8B5164B1B889BB21F2B22D94D
S214001570FEE70025134B984711490B880122AA4025
S21400158093430B80104B9847AD00104BEB58984791
S21400159001213B889BB2002B11D023880B42E8D157
S2140015A0012233889BB2150013411942E2D1013261
S2140015B0052AF6D1EDE7024F3C003E00E8E7F8BD0D
S2140015C06401002075740000817400000C25010081
S2140015D010B50400044B9847044B18882043188025
S2140015E0034B984710BDC046757400006401002088
S2140015F08174000010B5064B1B78002B00D110BD7F
S2140016000122044B1A700120034B9847F7E7C046A7
S214001610740100203E080020D115000010B582B0ED
S21400162024490A8892B20B8801339BB20B809A42F7
S21400163003D9214A136801331360EFF310835A422B
S2140016405341019372B6BFF35F8F00221B4B1A7093
S214001650019C1B4B1B68FF2B0DD01901194A521811
S214001660527B002A07D1174A8858124B1B889BB218
S214001670020C9A420AD0FF23234205D001220F4BC8
S2140016801A70BFF35F8F62B602B010BD80B2FF283B
S21400169009D90D4B98470A4B1A681201094B9B183B
S2140016A001225A73E7E70122084B1A700120084B03
S2140016B09847E0E73C08002040080020080000208B
S2140016C070010020AC060020D19100003E080020EA
S2140016D0D115000070B50400FF2830D0194B1B68E8
S2140016E0194B1D882D04194B984723012843184A87
S2140016F09B58181A174B98421AD82201144B9B185D
S2140017005B7B002B1DD1FF280BD9134B984218D8B2
S21400171080B2124B984724010D4B1C1901236373AA
S2140017200FE001220E4B1A7001200E4B984708E07E
S21400173001220B4B1A7001200A4B984701E00A4B16
S214001740984770BD400800203C0800205D910000CE
S214001750AC060020FEFFFF7FFFFF0000D1910000D7
S2140017603E080020D1150000A991000010B51D4BC1
S2140017701B78002B27D000221A4B1A701A4B1B78A6
S214001780002B20D0194B1B68FF2B1DD0184B186858
S21400179018490B681A01184B9B1818730860164AEC
S2140017A013490B681B01D318187B0860114B1B6884
S2140017B01B01D218FF2313730B4A1378013BDBB2CD
S2140017C01370002B0BD110BD0A4B1B68FF2BDDD10D
S2140017D0074B1B68054A1360064A1360DFE7074B92
S2140017E09847F0E73E0800207401002068010020BA
S2140017F0700100206C010020AC060020D516000009
S21400180000230D4A13700D4A1370FF330C4A136001
S2140018100C4A13600C4A13600C4B18009130FF30D2
S214001820FF21002219721A6010338342FAD1002277
S214001830074B1A707047C046740100203E0800200F
S21400184070010020680100206C010020B006002016
S2140018506601002010B5084B98470023074A1380FE
S214001860074A1360074B98470748084B98470848AD
S214001870084B984710BDC046011800003C080020E1
S214001880400800203D9200001D160000C192000096
S214001890F5150000CD92000070B5054B1C68054B91
S2140018A01D882D04044B98472843210070BDC04670
S2140018B0400800203C0800205D91000010B50400A0
S2140018C0084B1B781420182B00D910BD064B9847E0
S2140018D0044A1378237001331370044B984708208A
S2140018E0F3E7C046660100207574000081740000AE
S2140018F0F0B5D6464F464646C0B584B007000D0044
S21400190016001C000A20182F09D8002B00D18CE0E6
S2140019103A01524B9B185B680B30002B05D004B085
S2140019201CBC90469946A246F0BD4D4B1B684D4BDD
S2140019301888030498464C4B984743460343002EAA
S21400194003D0012E38D00A20E9E748490A202A00A9
S214001950FF3AED188A42E2D8EFF310835A42534119
S214001960039372B6BFF35F8F0026414B1E70039B36
S2140019709946404B9847394B3A01D5509B185C60C6
S2140019800C9A9A605E733C4A13780133DBB213708C
S2140019903A4B1B689A46FF2B16D06A46137012788D
S2140019A0354B1B78002B42D0009200232B498846EB
S2140019B033488C46304C2AE02800FF38C31A2B4A9E
S2140019C00A209342C8D9AAE72C4B1F6038002D4B3B
S2140019D0984736E0214B3C011C19227301990901F6
S2140019E0591800234B73924505D0009B18011B4BDA
S2140019F01818077325E0214B1F603800214B9847C5
S214001A001FE00133DBB22178C9B28B4210D2FF2A25
S214001A10F7D00192110146468959691A8142D9D8F0
S214001A201101614400920A7BEBE70A2077E70092F7
S214001A300A4B009A1001181807733F01DF19FF239D
S214001A403B73FF2308204A46134200D167E7012272
S214001A50074B1A70BFF35F8F62B660E7AC060020D4
S214001A60400800203C0800205D91000000FFFF7F3A
S214001A70080000206D17000074010020700100208F
S214001A80FEFFFF7FD516000003010348C01840681C
S214001A90431E9841C0B27047AC06002070B50500E2
S214001AA0094B1C68094B1E883604094B98470643A9
S214001AB02D01084BE8580200002C02D1801BB242D0
S214001AC000D8002070BDC046400800203C0800201A
S214001AD05D910000AC06002010B5054B1868FF2885
S214001AE002D10120404210BDC0B2024B9847FAE72F
S214001AF0700100209D1A0000F0B5DE4657464E469F
S214001B004546E0B583B02F4B1B682F4B1B882F4BE9
S214001B109847EFF3108253425341009372B6BFF3D7
S214001B205F8F00222A4B1A70009C2A4B9847FF238F
S214001B30234205D00122264B1A70BFF35F8F62B690
S214001B40234B9A46244C254B99460022FF20244BD3
S214001B5098461F4B9C4604E0434618601EE0002E45
S214001B6025D11D4B1B68FF2B24D0EFF310814B4271
S214001B704B41019372B6BFF35F8F53461A70019FB5
S214001B8023681B014B44197B5E689D68AB4618733F
S214001B905A609A605A732160FF29DDD03842DED041
S214001BA0012361460B70BFF35F8F62B6D7E75846D6
S214001BB0B047CAE703B03CBC90469946A246AB463F
S214001BC0F0BDC046400800203C0800205D910000A3
S214001BD0080000206D17000068010020AC060020F9
S214001BE06C01002010B5024B9847002010BDC0467F
S214001BF0F91A000070B582B004000A20182C01D92A
S214001C0002B070BDEFF310835A425341019372B68F
S214001C10BFF35F8F0022474B1A70019D464B9847D3
S214001C20464B1B78002B40D0444B1B78DBB2444A13
S214001C301668F1B2002B38D08C420BD041480A010E
S214001C408218127B013BDBB2002B2ED0944201D0CF
S214001C501100F4E7A6421DD03A4B22019A18127BD7
S214001C60090159180A732201364B9B18FF221A7372
S214001C70324A1378013BDBB213702401314B1C1936
S214001C8000236360A3606373FF3308202B42B7D042
S214001C90012340E02C4B984722012A4B9B18187BC7
S214001CA0274B1860294B9847DDE7294B1868C2B2C6
S214001CB0FF2A2CD0944209D022491301CB181B7B53
S214001CC0FF2B24D09C4201D01A00F6E7A0420DD08C
S214001CD01C4B21015918097B10011B1819731D4B49
S214001CE01B689C42C9D11B4B1A60C6E7194B1B6880
S214001CF0984206D00001134B1818027B144B1A604A
S214001D00BBE7FF23134A1360114A1360B5E7FF23AE
S214001D102B420AD000230121064A1170BFF35F8FC1
S214001D2062B6002B03D115206AE7152068E7082065
S214001D3066E7C046080000206D170000740100200A
S214001D4070010020AC060020A9910000D516000006
S214001D50680100206C010020F0B583B005000B4B35
S214001D601C6822010A4B9B185E689F68E4B220003C
S214001D70084B9847082801D003B0F0BD0097330001
S214001D80002229002000044CA047F5E7700100203F
S214001D90AC060020F51B0000F118000070B5224BC1
S214001DA01C685D6800196941186059601F4B19600E
S214001DB0020C1F4B1A8080B21E4B1B781E4A1278EC
S214001DC0002A12D000221D4C1B4D05E00132D2B273
S214001DD02978C9B2914208D9FF2BF7D01B011959AF
S214001DE0091A1951E3181B7BF0E7154B984715485D
S214001DF0154B98471548164B98470F4B1B78002BEA
S214001E0009D00C4B1B68FF2B05D0124B9847FE28B9
S214001E1002D9114B984770BD0122104B1A70012051
S214001E200F4B9847F7E7C04678010020400800208F
S214001E303C0800207001002074010020AC06002041
S214001E403D9200001D160000C1920000F51500002E
S214001E50CD920000D91A0000591D00003E0800204F
S214001E60D115000010B5144B1A780023002A06D1AD
S214001E700201124B9B181A790523002A01D118007B
S214001E8010BD03010D4A9C58002C11D01A000B4BB4
S214001E909B189B68002B0DD005230B28EFD8043B1E
S214001EA06354074A13540120064B98470023E6E77D
S214001EB00523E4E70523E2E7800100205008002020
S214001EC0440800206120000084B010B503910492FD
S214001ED005930B4B1A780023002A02D105330B28F2
S214001EE004D9180010BC08BC04B01847000103AAA7
S214001EF0044B18181ACA1AC0136803600023F0E7C8
S214001F00800100205008002010B5094B1A780023E5
S214001F10002A02D105330B2801D9180010BD000194
S214001F20044BC01810320021034B98470023F4E7F7
S214001F308001002050080020E7120100F8B50C00D0
S214001F408023DB019C466044050280235B009A42A6
S214001F500ED0043296B21E4F330022002900002015
S214001F60B847C3B2052BF7D00220002B0BD0F8BD24
S214001F701E00174F3300220029000020B847C3B2C6
S214001F80052BF7D0F0E72378607800021843A67890
S214001F900434002E17D02500013EB6B20136A4192F
S214001FA000262B787340D9B20B014B40DBB29AB2B5
S214001FB01B09D1004B401202360A324353409EB2F0
S214001FC00135A542EDD1801B461EB041C0B2CEE71A
S214001FD0E10F0000F0B5C64600B580460C000123B0
S214001FE0CB708A70FF2717400E1D002F17D03000C9
S214001FF0013FBFB20137F619002703787B40D9B2FC
S2140020000B014B40DBB299B21B09CD006B400902B5
S2140020103F0A39434B409FB20130B042EDD12770A2
S2140020203F0A6770043296B28021C9014144090212
S214002030330022000020084FB8470223002803D0B0
S214002040180004BC9046F0BD320021004046034B09
S21400205098470300F4E7C0463D1000003D1F00000F
S21400206010B50400054B9847054B187820431870A8
S214002070044B98470820044B984710BD7574000021
S2140020808101002081740000D1150000F0B5DE4605
S21400209057464E464546E0B5C5B080225200002160
S2140020A004A8544B9847544B1B78002B12D101249C
S2140020B0514A0094135D002B0FD10134E4B20B2C6F
S2140020C0F7D90025280045B03CBC90469946A24664
S2140020D0AB46F0BD002300930024009B1A01474B3B
S2140020E09B181979464A94466144C9009B6859185A
S2140020F0082202A8434B984702ABDA799B79D2189C
S214002100053204A92000404B9847051E11D1009BBC
S2140021101A013A4B9B181B790025002B4AD0374BE7
S2140021209946009B1E01B346CB44364B9A465F4603
S2140021301BE0032844D1EAE70021197002AB9A7924
S2140021405B799846A523037001234370827043464B
S214002150C37001710530029B01931900294B984703
S2140021600135EDB23B79AB4224D9E9005B469B686A
S2140021709C466144082202A8D04702ABD8791523B2
S21400218002AA944663449C4660444B46F3585B1947
S2140021901A78012AD0D0022AE2D100221A7002ABA5
S2140021A099795A79A5230370A43B43708170C27055
S2140021B00371D5E7F32204A92000144B98470500C5
S2140021C000220D4B00995A540134E3B20B2B00D970
S2140021D078E7094AD25C002A08D107490133DBB206
S2140021E00B2B00D96EE7CA5C002AF7D00120084BFB
S2140021F0984767E7E71201004408002050080020CF
S214002200FFFFFF1FD512010079240000892300007C
S2140022106120000010B50E4B1B78002B03D00C4B32
S2140022201B78DB0701D4002010BD0A4B9847084CEA
S2140022302378012293432370074B9847074B984710
S2140022402378002BEFD00820054B9847EBE7C046D5
S2140022508101002075740000817400008D2000004C
S214002260D1150000F0B5124E37001837114D124B3D
S2140022709C4601214942180002E00236BE4215D0B3
S2140022803388AB42F9D0DB0063441A00DB88D18088
S214002290AB42F2D01A00DB00C318DB88D2008418E9
S2140022A0E1801150A180AB42F4D1E6E7F0BDC04614
S2140022B084010020FFFF00009C010020F0B5C64608
S2140022C000B582B0844681884A002C4BD35A2C4AEB
S2140022D093422CD02B4AD80080586446E488A04607
S2140022E0E400A658B04227D32FD0264ADD00063594
S2140022F050190190DB00D318DA88214B9A4228D077
S2140023001300D0001F4C0059864226D21D4C1C4F8D
S2140023102000DB00991D6118E318DA88BA4219D04C
S2140023201300D5002D58AE421BD20191F1E7C288AA
S2140023304900124BCA5208E0124A1219D38063466B
S214002340D9889B885B000D4A995202B004BC90461F
S214002350F0BD019943460B80F7E74900074D6B181F
S21400236001930849019B1B88DB00CB184046D880A8
S2140023706346DB88DB00C918CA80E6E784010020D4
S214002380FFFF00009C010020F0B5CE46474680B512
S21400239083B005000F009046324E330000243248CA
S2140023A004E00134E4B20833102C55D0196801312A
S2140023B0F7D1D9888142F4D19A888242F1D1A3B26A
S2140023C099467E7ABB7A1B023343FE7A3604334341
S2140023D03E7B36061E4301367E72320ABA72320CD5
S2140023E0FA72320E3A73ADB2FD7100223A72A5232C
S2140023F03B71A43B7B714346BB714246093292B2A5
S21400240039004846194B9847071E14D0380003B0C9
S2140024100CBC90469946F0BD0134E4B20836102C48
S214002420CDD032680132F7D1F2888A42F4D1B3882F
S2140024308B42F1D1C3E70B4BE400E6501C19A58094
S21400244001235B42E38000966B469D804A46DA8015
S2140024506846074B9847D9E7064B98470024024939
S214002460DFE7C0469C010020FFFF0000D51F0000EC
S214002470BD2200006522000010B54000064BC35A7E
S214002480064C0320A34200D110BD093292B21800B8
S214002490034B9847F8E7C04684010020FFFF000082
S2140024A03D1F0000F0B583B004000E002B4A01214A
S2140024B01170002353709170D370137113722849F2
S2140024C02848294B9847002101AD284F7018002353
S2140024D0C25C5A550133042BFAD1019BCB5104310F
S2140024E01029F3D11F4D21492800214B98472A680F
S2140024F0137902210B431371002101AD1B4E6018A6
S2140025000023C25C5A550133042BFAD1019B8B5130
S21400251004311029F3D1134D14492800154B984760
S2140025202D682B79022293432B710121022001E0B2
S214002530114207D1EB79DBB20A001A401842F7D0F5
S2140025400243F5E7094D290006480B4B9847102231
S21400255029002000094B984703B0F0BD1009002061
S214002560003400421C090020510100001C0200201B
S214002570E50100001902000069020000D512010002
S21400258070B5074D2800074B9847074C2A000749A7
S2140025902000074B98472000064B984770BDC04662
S2140025A010090020150100001C090020003400421C
S2140025B0C50100002F0100007047000030B587B04D
S2140025C07A4B03229A7710211F329954213A2124FC
S2140025D01A55DA771A006C321A71140A5C71140CE8
S2140025E09C71120EDA711A002C321A70140A5C7082
S2140025F0140C9C70120EDA701A008C321A72140ABE
S2140026005C72140C9C72120EDA721A004D32FF3293
S2140026101A74140A5C74140C9C74120EDA741A0081
S214002620AD32FF321A73140A5C73140C9C73120ECC
S214002630DA7302229A76DA7600241C75163C5C75EC
S2140026401C349C753134DC755A76253C1C760B3C64
S2140026501C7700255D7724355C5501355C551934AB
S2140026601955AA21FF315A54514A1178A82252000E
S21400267099542B3AFF3A98540638163C08281CD929
S2140026804C4B1B78002B02D101224A4B1A704A4B46
S21400269098474A4B98474A4B9847444BFE22FF328E
S2140026A09A5CFF214900585C00021043C1B2000A40
S2140026B0444B9847200007B030BD1C0018006C3013
S2140026C0223A4149414DA84720008C301822404903
S2140026D0A8472000AD30FF300C223E49A847200016
S2140026E09730FF3002223C49A84702232F48FF2597
S2140026F02224027941790902114382791204114396
S214002700C27912060A4359008A1855700133DBB2A3
S21400271002579342EDDB254C1022D5235B00E25492
S214002720207863781B020343A07800040343E07814
S2140027300006184330322949244B984704230421C5
S214002740FA225200A1540021F622FF32A1542200A0
S214002750F632FF325170F822FF32A1542200F832CE
S214002760FF3253700131FA22FF32A1542200FA32AE
S214002770FF3253700021FC22FF32A1542200FC32AB
S214002780FF3251700231FE22FF32A154A41863704A
S21400279002ABFB3AFF3A1A71114A00921149039AAA
S2140027A0114B0420114CA047082469E7480B002071
S2140027B0440B00202C020020D9620000C5690000EE
S2140027C03D6C0000651E000038250100D512010092
S2140027D020250100802501007C2501003C25010004
S2140027E0B9250000240900208C250100C91E000020
S2140027F070470000F0B5DE4657464E464546E0B503
S21400280087B0694C0323A37748221F33E2541B3B4F
S214002810E37723009C330022904623711A0A6271E4
S2140028201A0CA2711A0EE27126002C362670320A95
S2140028306270320CA270320EE270FF2262760825B9
S2140028400827A576E576603AFF3A9246227570220A
S2140028506275A775393AE2751F3A2276123A9346A0
S21400286022774146617740218946FC314A466254C8
S2140028703E22FF32A554053A4146A1543A22FF3281
S2140028805946A1540132A5542E3AFF3A94463C22AA
S214002890FF326146A1540332A554002294462D32DD
S2140028A0FF326146A15422002D32FF3228214942D0
S2140028B051707421494291703621D170602294463D
S2140028C0D0326146A15422003132FF327A21494289
S2140028D051706921494291703621D1709A22520076
S2140028E05146A15422003532FF3270215170977044
S2140028F03721D17005212422A15405310132A1547B
S2140029001431053AA1540632A0546A3227491800F9
S214002910274B99469847702226493000C8474023DF
S214002920FF334246E254B533E5540022F623FF3324
S214002930E2542300F633FF335F700132F823FF338F
S214002940E2542300F833FF335F700022FA23FF338C
S214002950E2542300FA33FF335A70FC23FF33E25469
S2140029602300FC33FF335A70FE23FF33E254E4188F
S2140029700023637002AB02321A710F4A00920F49AD
S214002980039A0F4B08200F4CA0470F4B98470F4B4E
S21400299098470F4B9847082007B03CBC904699468E
S2140029A0A246AB46F0BDC046480B0020A425010059
S2140029B0D512010034260100F12700002809002066
S2140029C0A4260100C91E000015640000316A00003C
S2140029D0896C00007047000070B58AB0914B0321E7
S2140029E09977102422229C540625013A9D54203AB9
S2140029F0DA771A006C321A71150A5D71150C9D7122
S214002A00120EDA711A002C321A70150A5D70150C47
S214002A109D70120EDA701A00AD32FF321A73150A64
S214002A205D73150C9D73120EDA731A008C321A72CF
S214002A30150A5D72150C9D72120EDA721A004D326E
S214002A40FF321A74150A5D74150C9D74120EDA7432
S214002A50597602221A7605321A7700255D77052602
S214002A6024355E5501355A55AA22FF3299548A3AC2
S214002A70FF3A9C546C4A1178A822520099542B3A7B
S214002A80FF3A9854002806D0C823012800D192E0C7
S214002A9018000AB070BD1C0018006C30203A63495C
S214002AA0634DA84720008C3024226249A8472000A6
S214002AB0AD30FF3048226049A84720009730FF30ED
S214002AC00C225E49A84703235648FF252224027994
S214002AD0417909021143827912041143C279120620
S214002AE00A4359008A1855700133DBB202579342E5
S214002AF0EDDB4C4B00229A76DA7608321A75223ACB
S214002B005A75133A9A756032DA7503220320FA2151
S214002B10490058540020F621FF3158541900F63168
S214002B20FF314870F821FF3158541900F831FF3151
S214002B304A70FA21FF3158541900FA31FF310B3030
S214002B4048700A38FC21FF3158541900FC31FF3117
S214002B504A700021FE22FF3299549B1800225A70B8
S214002B6002AB02321A71364D00953649039A364B3F
S214002B700230364CA04706AB01221A710095344944
S214002B80079A344B0B20A047264A107853781B022E
S214002B900343907800040343D0780006184340228D
S214002BA02D49234B98472D4B98472D4B98472D4B37
S214002BB0984708236CE71B4C20006C3006222A49F5
S214002BC01B4DA84720008C3024222849A847200007
S214002BD0AD30FF300C222649A84703231148FF25B5
S214002BE022240279417909021143827912041143A1
S214002BF0C27912060A4359008A1855700133DBB2AF
S214002C0002579342EDDB074B05229A760022DA76CE
S214002C10703A1A7541325A75023A9A754A32DA751E
S214002C20B2E7C046480B0020440B002004270100F2
S214002C30D5120100D8260100642701004C270100A8
S214002C40D52900002C090020AC270100C91E000071
S214002C5030090020BC2701000C2701009D61000000
S214002C605D690000F96B0000FC260100B426010037
S214002C70582701007047000070B586B0604B0321EE
S214002C809977102522229D54213A21241A55DA7765
S214002C901A006C3200241A71160A5E71160C9E71A8
S214002CA0120EDA711A002C321A70160A5E70160CA2
S214002CB09E70120EDA701A008C321A72160A5E7243
S214002CC0160C9E72120EDA721A004D32FF321A7409
S214002CD0160A5E74160C9E74120EDA749C76022225
S214002CE0DA76123A1A75703A5A7526329A758D3215
S214002CF0DA7559761D762C3A1A775C77AA24FF3453
S214002D00195521315A541A391E3299541431053A3C
S214002D10995406329854A03CFF3C0F2808D0394BF3
S214002D209847394B9847394B9847200006B070BDF6
S214002D301C0018006C30203A3549364DA847200054
S214002D408C3024223449A84706202D49FF240B79CD
S214002D504A7912021A438B791B041A43CB791B0655
S214002D6013431B185C7002302028F0D1244C1E221E
S214002D70D5235B00E254207863781B020343A078D7
S214002D8000040343E0780006184322322349214B0F
S214002D90984706230621FA225200A1540021F62263
S214002DA0FF32A1542200F632FF325170F822FF3271
S214002DB0A1542200F832FF3253700131FA22FF325A
S214002DC0A1542200FA32FF3253700022FC23FF3354
S214002DD0E2542300FC33FF335A70FE23FF33E254E1
S214002DE0E4180023637002AB02321A710C4A009298
S214002DF00C49039A0C4B06200C4CA04708248EE77F
S214002E00480B0020456500009D6A0000A96C000084
S214002E10E8270100D5120100C4270100F0270100B1
S214002E20752C00003409002030280100C91E00005F
S214002E3070470000F0B587B07D4B03229A771021CB
S214002E401F329954213A21241A55DA771A006C3227
S214002E501A71140A5C71140C9C71120EDA711A0045
S214002E602C321A70140A5C70140C9C70120EDA70F5
S214002E701A00AD32FF321A73140A5C73140C9C737A
S214002E80120EDA731A008C321A72140A5C72140C60
S214002E909C72120EDA721A004D32FF321A74140A3D
S214002EA05C74140C9C74120EDA7402229A76DA762B
S214002EB000241C75163C5C751C349C753134DC751E
S214002EC05A76233C1C760D3C1C7700255D770A2637
S214002ED0A735FF355E55A636A825FF355E55AB3EB1
S214002EE001355E55AA25FF355A5522329C540132CB
S214002EF09C54053A99544F4A14789621FF315C54F5
S214002F005178A822520099542B3AFF3A98540A2432
S214002F10052808D0484B9847484B9847484B984751
S214002F20200007B0F0BD1C0018006C30223A45495E
S214002F30454DA84720008C3018224449A847200059
S214002F40AD30FF300C224249A84720009730FF30B2
S214002F5002224049A847022302223549FF270025BE
S214002F601D3608794C79240204438879000404430A
S214002F70C8790006204354002018477052339B003F
S214002F80CB185D729D72DD721D730132D2B21300D2
S214002F9088578242E5DB264CFF222723E254EF3A8D
S214002FA08433FF33E254207863781B020343A0780F
S214002FB000040343E0780006184330322649224BCB
S214002FC0984707230721FA225200A1540021F6222F
S214002FD0FF32A1542200F632FF325170F822FF323F
S214002FE0A1542200F832FF3253700131FA22FF3228
S214002FF0A1542200FA32FF3253700022FC23FF3322
S214003000E2542300FC33FF335A70FE23FF33E254AE
S214003010E4180023637002AB02321A710F4A009262
S2140030200F49039A0F4B07200F4CA047082471E75F
S214003030480B0020440B002071660000056B000062
S214003040E56C000058280100D51201004028010058
S214003050A02801009C2801005C280100312E0000F9
S21400306038090020AC280100C91E00007047000087
S214003070F0B5D6464F464646C0B586B0934B0321BC
S2140030809977102422229C54213A11341A55DA7763
S2140030901A006C3200241A71150A5D71150C9D71A8
S2140030A0120EDA711A002C321A70150A5D70150CA1
S2140030B09D70120EDA701A008C321A72150A5D7242
S2140030C0150C9D72120EDA721A004D32FF321A7407
S2140030D0150A5D74150C9D74120EDA749C76DC76F7
S2140030E0202252421A7533325A75203A9A75433264
S2140030F0DA755976223A1A760F3A1A775C770A34D6
S214003100D3256D005C55BF26A825FF355E550135D5
S2140031105C55AA24FF34195521315A541D392032E2
S21400312099540731053A9954694A11789622FF3224
S2140031309954703AFF3A9854E13C04280CD0654BF9
S2140031409847654B9847654B9847200006B01CBCCF
S21400315090469946A246F0BD1C0018006C30203AF6
S2140031605F49604DA84720008C3024225E49A8475E
S21400317003210320554B40360025D52252009046A9
S214003180B446893AFF3A924642001C79A1465C79D9
S21400319024024F4627439C7924042743DC792406DF
S2140031A03C43A41866701C79A1465C7924024F46FD
S2140031B027439C7924042743DC7924063C43A55402
S2140031C01C7AA1465C7A24024F4627439C7A240444
S2140031D02743DC7A24063C431218920012195572D3
S2140031E0424664469C545231890059184D728D727D
S2140031F0CD720D730130C0B2010052469A5690420D
S214003200C2DB324CFF222723E254207863781B026D
S2140032100343A07800040343E07800061843CF3A3F
S2140032203249304B9847637F002B17DD274A1178C9
S21400323053781B020B43917809040B43D178090697
S21400324019430023012507241000DA008A18D571D7
S214003250947101335BB2427F9342F6DB1B4B05222F
S2140032600520FA21490058540020F621FF31585411
S2140032701900F631FF314870F821FF315854190013
S214003280F831FF314A700130FA21FF3158541900E5
S214003290FA31FF314A700021FC22FF3299541A009D
S2140032A0FC32FF325170FE22FF3299549B180022E6
S2140032B05A7002AB02321A710D4A00920D49039AF7
S2140032C00D4B04300D4CA047082438E7480B00206F
S2140032D0440B0020B1670000716B0000316D0000E8
S2140032E0E0280100D5120100BC280100E8280100F2
S2140032F06D3000003C09002018290100C91E00009E
S21400330070470000F0B5DE4657464E464546E0B5E7
S21400331089B00390684C022602239846A677482276
S2140033202223E2541B3BE3772A3A1933E254230064
S2140033309C33002723711A0A62711A0CA2711A0EA6
S214003340E27125002C3525702A0A62702A0CA270BC
S2140033502A0EE270FF226276F53AA276082008224C
S214003360E276602252429446227570226275A075FB
S2140033703722E27518222276042291462277677752
S21400338040229246FC325146A1543E22FF3208218A
S214003390A154053AA7543A22FF324946A1540132B5
S2140033A00821A1542E3AFF3A3C21FF3162540331E2
S2140033B00A22625460221239625421002D31FF31F4
S2140033C001224A70382252428A703522CA70402240
S2140033D0524298214900625421003131FF31512276
S2140033E052424A702E2252428A703522CA709A2160
S2140033F049006246625421003531FF3170224A701E
S21400340088703720C87003202421605401310A22B6
S214003410625426226946097BA1546A32274918005D
S214003420274B99469847702226492800C8474023CC
S214003430FF33E754B533E6540022F623FF33E25455
S2140034402300F633FF3342465A70F823FF33012237
S214003450E2542300F833FF3342465A700022FA2320
S214003460FF33E2542300FA33FF335A70FC23FF3352
S214003470E2542300FC33FF335A70FE23FF33E2543A
S214003480E4180023637004AB1E710F4A00920F49C4
S214003490059A0F4B02200F4CA0470F4B98470F4B37
S2140034A098470F4B9847082009B03CBC9046994671
S2140034B0A246AB46F0BDC046480B002028290100B6
S2140034C0D5120100B8290100013300004009002090
S2140034D0282A0100C91E000069600000F16800008B
S2140034E0D96B00001520704715207047222302492B
S2140034F0CB5C137008207047480B0020044B597EA5
S21400350011705B7E0820FF2B00D070470230FCE76E
S214003510480B0020024B9B7E137008207047C04665
S214003520480B0020024BDB7E137008207047C04615
S214003530480B0020024B1B7E136008207047C046D5
S214003540480B002030B583B015000C7801A90C702C
S21400355001234B700D4B5B6D15209847082804D04F
S214003560FF232B700A2003B030BD09490B794A7936
S214003570120213438A7912041A43CB791B061A43A4
S21400358063009B185B782B70EDE7C046E8030020CD
S214003590480B002030B583B015000C7801A90C70DC
S2140035A001234B700C4B5B6D15209847082804D000
S2140035B000232B700A2003B030BD08490A794B79E6
S2140035C01B0213438A7912041343CA7912061A435C
S2140035D06400A35C2B70EEE7E8030020480B002095
S2140035E001235B4213800A20704701235B4213606D
S2140035F00A207047FA239B00138008207047FA239E
S214003600DB00138008207047014B138008207047AA
S21400361088130000014B13800820704770170000C5
S214003620FA23DB001380082070472023137008203D
S214003630704740231370082070478023DB011380F7
S21400364008207047024BDB7F137008207047C04687
S214003650480B0020024B9B7F137008207047C04623
S214003660480B002027230249CB5C137008207047C4
S214003670480B0020094BD4214900595C9171D32195
S2140036804900595C1180A821FF315B565380012305
S214003690D3710433938000207047C046480B002047
S2140036A030B50B782221204841560A208B423ADC5E
S2140036B03330FF301C4C245CA3421CD30A208B42C0
S2140036C031DA1B1B19494B43174C98214900615CA2
S2140036D03220FF30205C0002014399204000205C2D
S2140036E0000408433421FF31615C09060143591880
S2140036F01160082017E00C4C96214900615C2E20D2
S214003700FF30205C0002084397214900615C0904F1
S21400371008433021FF31615C0906014304484343F6
S214003720CB181360082030BD480B0020006A180034
S214003730400D03000A783A23FF330349CB5C082088
S2140037409A4200D902307047480B00200B78084A8E
S214003750127F0A209A420AD3AC22FF3204498A5CBE
S2140037600238D20703D58A7E9A4200D902307047C3
S214003770480B00200B783C22FF3206498A5C0A2060
S2140037809A4206D39D2252008A5C02389A4200D999
S21400379002307047480B00200B78084A127F0A2038
S2140037A09A420AD3AC22FF3204498A5C0238920756
S2140037B003D58A7E9A4200D902307047480B002013
S2140037C00A7822230349CB5608209A4200DB0230AF
S2140037D07047C046480B00200B78222208488256C5
S2140037E00A2093420ADA4A780238002A06D1AA2228
S2140037F0FF3203498A5C9A4200D902307047C046BD
S214003800480B002030B583B014000D7801A90D7068
S21400381001234B7015200B4B9847082802D00A202E
S21400382003B030BD084A6B005B199B00D318943375
S2140038301B78C8335B00D2189179D3791B020B43EF
S2140038402380EDE7D9370000480B0020F0B59446FA
S2140038501A4B1C7F5F7F22215E56002E28DD190042
S2140038601D795B791B022B438D792D042B43CD7973
S2140038702D061D4300210BE043781B09BB4203DDE8
S2140038800078002800D01F000131C9B2B1420FDA1B
S2140038904800281843781B071B0FA342ECDA02786F
S2140038A0002AF1D01C0043781B09BB42EBDCEBE797
S2140038B063461C705F700820F0BDC046480B0020B1
S2140038C00B78052B04D00820072B00D90230704750
S2140038D00A20FCE70A7825230349CB5608209A429B
S2140038E000DD02307047C046480B002008207047B5
S2140038F030B50988002920D02223114AD056002846
S2140039001BDD147A537A1B022343947A2404234340
S214003910D47A24061C430023032504E04908013317
S214003920DBB2834209DA0029F8D05A00D218920096
S214003930A218D27A2A40032AF0D0082030BDC0460A
S214003940480B00200B780820002B02D0062B01D055
S214003950023070470820FCE710B582B001AC0422A4
S21400396020000F4B98476388002B04D101AB1A78D0
S2140039700A23002A07D06B46991D1A20094B984740
S2140039800A23082802D0180002B010BD01A913307F
S214003990054B984703000828F5D00A23F3E7C046EE
S2140039A0D5120100F1380000453900000A78034BB3
S2140039B01B7F08209A4200D902307047480B00202F
S2140039C070B50D782223144AD456002C22DD1079C7
S2140039D053791B020343907900040343D079000611
S2140039E0184300232E0003E00133DBB2A3420FDAB4
S2140039F05A00821811780029F6D051780907090F65
S214003A008D42F1DB527812099642EDDC082000E088
S214003A100A2070BD0A20FCE7480B002010B5086895
S214003A20074B9C466044074A0A23904206D806493C
S214003A30064B98470823002900D00233180010BD13
S214003A40608FF7C840164000C027090019F0000034
S214003A500A7824230349CB560A209A4200DC02380F
S214003A607047C046480B002030B504002123194A91
S214003A70D55C002D2CD01100137B527B12021A430A
S214003A808B7B1B041A43CB7B1B061343002004E0EE
S214003A900130C0B20C33A84218D01A7859780902FF
S214003AA011439A7812041143DA7812060A43A242A6
S214003AB0EED81A795979090211439A7912041143FA
S214003AC0DA7912060A439442E2D800E0FF2030BDBD
S214003AD0FF20FCE7480B002010B50868044B984709
S214003AE00823FF2801D0180010BD0233FBE7C046AC
S214003AF0693A00000B68262219498A5C911F03293F
S214003B0008D8184A94466344174A0820934200D9B6
S214003B10023070470A2A11D00B2A18D011000D392E
S214003B20012914D90A200C2AF3D1104A944663447A
S214003B300F4A02389342ECD90230EAE70D4A94461F
S214003B4063440D4A08209342E3D90230E1E70B4A6A
S214003B50944663440A4A08209342DAD90230D8E7EA
S214003B60480B00204023FCC880841E0080650BC9DB
S214003B70808D5B00403576C9405DC60000EA29C9E5
S214003B80404B4C00F0B50D7849784A080948AC24FB
S214003B90FF3401263140035D0127BB43324052000B
S214003BA00B4302218B43134303552023C55408209F
S214003BB0F0BDC046480B0020F0B5DE464F464646F0
S214003BC0C0B582B0019015009846002399460300C0
S214003BD008281DD02D4B984701990F002C4B98476D
S214003BE00131CBB29B46002B4ED02A490A794B793D
S214003BF01B021A438B791B041343CA7912061A4315
S214003C0016005C46380048444B4600932F0021E0DF
S214003C103533FF331F4AD35C9946DBE70133DBB20B
S214003C20834213DA002C1CD0590071184A78120708
S214003C30120F9542F2DB4A7812099742EEDC0A78B8
S214003C40002AEBD0013CE4B2E8E7009BA3450AD08B
S214003C50002C06D08145F8DA002C01D0009BE3E763
S214003C604B46082000E01020002B09D1019C013CA7
S214003C7043461C7002B01CBC90469946A346F0BD55
S214003C80013B42461370F5E70820EFE75D1401009C
S214003C90EDF10000480B002070B54C782220074D4F
S214003CA02D561838AC4200DD70BD887809781300B0
S214003CB002002000024CA047F6E7C046480B002052
S214003CC0B93B0000F0B5DE4657464E464546E0B5E1
S214003CD087B003900291150004935849D1235B00E6
S214003CE0CB5CA422FF328A5C12021A43D2235B000A
S214003CF0CB5C1B041A43A623FF33CB5C1B06134383
S214003D001020002B06D007B03CBC90469946A24631
S214003D10AB46F0BD4A4B984703990C00494B984771
S214003D200131CBB2181E059300D185E0434B1E79B6
S214003D305A79120232439E7936043243DE793606C9
S214003D4016432622995C404A0A41012111408A46C0
S214003D50197B5A7B120211439A7B12040A43D97BC1
S214003D60090611438946197A5A7A120211439A7A39
S214003D7012040A43DB7A1B0613439B460100A8463F
S214003D8045E00139C9B20133DBB29C423ADD002975
S214003D9044D01F005800301842781207120F954280
S214003DA0F1DB427812099045EDDC0278002AEAD071
S214003DB05246002A18D05A00D21892005A44107A56
S214003DC04200121892004A44107A84460192507AB1
S214003DD0000262461043019A927A12041043019A36
S214003DE0D27A12060243CED1029A002AC9D17A00AC
S214003DF0D719BF005F447A7A002AC4D00139C9B205
S214003E00C1E70023059A8A420AD0002906D0002C72
S214003E10F7DD002901D00023BBE70B00082000E0F7
S214003E201020002B04D1039B013B049A13706AE711
S214003E30013B049A137066E70820F4E7480B00205D
S214003E405D140100EDF10000E37F000070B54C78D2
S214003E502220074D2D561838AC4200DD70BD8878FC
S214003E600978130002002000024CA047F6E7C0467F
S214003E70480B0020C53C000010B52223144AD35638
S214003E8098420BDB2623D25C1A3B1341DB071ED479
S214003E90AA23FF330E4AD35C834218D80C4B1A79F8
S214003EA05C79240214439A7912041443DA791206D0
S214003EB0224340008154F822FF329A5CFC214900DC
S214003EC0585C00021043C1B2000A024B984710BD6E
S214003ED0480B0020651E0000F8B5CE46474680B564
S214003EE004000F001500884212D801260A4B994696
S214003EF0984607E000212000C0476D080134E4B270
S214003F00A74205D32E42F5D031002000C847F4E77B
S214003F100CBC90469946F8BD793E000070B50C0082
S214003F202223404AD356984217DAAA23FF33D35C9B
S214003F30834212D845002D18AD001100137A527A2C
S214003F4012021A438B7A1B041A43CB7A1B061343BE
S214003F505B19DB7ADB439B0700D070BD0E000B7944
S214003F604A7912021A438B791B041A43CB791B0633
S214003F7013434000C454F823FF33CB5CFC225200AA
S214003F80885C00021843C1B2000A274B98472623D4
S214003F90F25C233B1341DB07DFD5002CDDD1214B40
S214003FA0187A5A7A12020243987A00040243D87AA0
S214003FB00006104345192D7A22229C56002C1CDD43
S214003FC01A0019795B791B020B43917909040B439C
S214003FD0D17909061943002303E00133DBB2A3427B
S214003FE00BDA5A00525C002AF7D05A00D218920018
S214003FF08218127AAA42F0D1AFE70A490A7B4B7BB5
S2140040001B0213438A7B12041343CA7B12061A430D
S2140040106B005D19AD00AD1800232B726B72AB728E
S214004020EB729AE7480B0020651E000070B582B060
S2140040300D784E7801A90D7000234B7015200C4B9F
S21400404098470400082803D00A24200002B070BD58
S2140040502623084AD35C0F2B04D031002800064BD9
S2140040609847F2E731002800044B9847EDE7C04632
S214004070D9370000480B00201D3F0000793E0000A5
S21400408070B504000D0025490B794A7912021A43CF
S2140040908B791B041A43CB791B0613434200D55475
S2140040A0F823FF33CB5CFC225200885C00021843E6
S2140040B0C1B2000A1A4B9847002D2AD0174A107A28
S2140040C0537A1B020343907A00040343D07A000617
S2140040D0184363001C19A4000019037842781202E2
S2140040E01A4383781B041A43C3781B0613430D4AEE
S2140040F093420FD80A238372084BFA22FF329A5C47
S214004100FD214900585C00021043C1B2000A044B6E
S214004110984770BD0E238372EEE7C046480B00201A
S214004120651E00001F21F63670B5050046002A4CB5
S2140041302379627912021A43A3791B041A43E3799E
S2140041401B0613439955F823FF33E35CFC22520009
S214004150A05C00021843C1B2000A204B984723799E
S214004160627912021A43A3791B041A43E3791B06E9
S21400417013439B5D002B00D070BD174C237A627AE8
S21400418012021343A27A12041A43E37A1B061A4356
S21400419073199B00002199549B1800225A709A703C
S2140041A0DA70FA23FF33E35CFB32FF32A05C0002D6
S2140041B01843C1B2000A094B98472623E35C052B37
S2140041C0DAD15235AD00044B5D1900226A72AA722C
S2140041D0EA722A73D0E7C046480B0020651E00002E
S2140041E070B582B00D784E7801A90D7001234B7022
S2140041F015200C4B98470400082803D00A242000FA
S21400420002B070BD2623084AD35C042B04D03100CC
S2140042102800064B9847F2E731002800044B9847E1
S214004220EDE7C046D9370000480B002029410000C2
S2140042308140000010B582B010004C788B780A7868
S214004240002A09D04023FF33234AD35C012B1AD01F
S2140042503A23FF33204AD35C1F499F2252008A5CD0
S214004260121B9B18DBB26A4613713C22FF328A5C33
S21400427093420CD89D22520017498A5C934208D27A
S2140042806B461A7105E03833FF33D35CE4E76B46C0
S2140042901A7111492723CC5C203B23400F4C5C430A
S2140042A09A235B00CB5C3622FF328A5C12021343F1
S2140042B09B2252008A5C12041A433823FF33CB5CDD
S2140042C01B061343E318009308226946044B9847DD
S2140042D0082002B010BDC046480B0020C0270900C9
S2140042E0D5120100F0B5C64600B584B0019204228E
S2140042F003A8434B984703A91B20424B984708281E
S21400430004D00A2004B004BC9046F0BD03AA13787B
S214004310578826223C49895C03394A1E914106315A
S214004320072B69D89A00394DAA5897461B01DBB26D
S2140043301A001032D2B2904693425FD2324E35798E
S214004340727912021543B27912042A43F5792D06C2
S2140043501543AC46002501240CE0110072781209C2
S214004360AA4202DD3C4211D015007F080133DBB2C1
S214004370984513D05E00664472781207120F8A4280
S214004380ECDA3C42E9D1002FEFD1E6E7002FEBD084
S214004390EBE73A23FF331C4AD15C0D002D010F23B7
S2140043A019400D43019B1D70ACE7174D2B796A79B8
S2140043B012021A43AB791B041A43EB791B0613430C
S2140043C01A0080331C00002502E00232A2420CD004
S2140043D0160053781B071B0F8B4200DA1900737800
S2140043E01B09AB42F1DD1D00EFE7002FD6D03A23C4
S2140043F0FF33054AD55CD1E70025CFE70025CDE79A
S214004400D5120100C1380000480B0020382A0100F0
S21400441010B5100004220249024B9847082010BD30
S2140044205C0B0020D512010010B513000A7822217B
S2140044300D4841560A208A4200DD10BD0A4C217AFA
S214004440607A00020843A17A09040843E17A090663
S2140044500143500082189200891804310422180083
S214004460024B98470820E8E7480B0020D5120100C9
S21400447000B583B010004A788B789A4225D900237D
S2140044806A46137113490B7A4A7A120213438A7AE0
S21400449012041A43CB7A1B061A432723C95C4B0027
S2140044A05B189B009B1819795A79120211439A7966
S2140044B012040A43DB791B0613430093082269465D
S2140044C0054B9847082003B000BD9B1A6A46137137
S2140044D0D8E7C046480B0020D5120100F0B5C64606
S2140044E000B582B0904601AD04222800384B9847AC
S2140044F02B78002B17D0062B59D11C33354AD756AC
S21400450000200725002F54DD324A167953791B0206
S2140045103343967936043343D67936061E43002055
S2140045200725002235E022232A4AD3569C46002B34
S2140045304ADD01AB5E88177953791B023B439779B6
S2140045403F043B43D7793F061F4300200725002240
S21400455001240BE04B781B09834202DD344200D075
S214004560180076080132D2B2624522DA5100791874
S2140045704B781B071B0FAB42ECDA3442F1D01D0020
S2140045804B781B099842EBDBEBE70132D2B2BA421A
S2140045900FDA510071184B781B071B0FAB4200DA7D
S2140045A01D004B781B098342EFDD1800EDE7FF2066
S2140045B0FF2500010F231D4028434346187008209E
S2140045C002B004BC9046F0BD00200725F1E7C046C7
S2140045D0D5120100480B002010B514000B782222DB
S2140045E00D498A560A20934200DD10BD0800097A5C
S2140045F0427A12020A43817A09040A43C17A0906FA
S21400460011435A00D3189B00C91804222000034BFC
S21400461098470820E9E7C046480B0020D51201005D
S21400462010B582B010002623374AD25C374B1341B0
S214004630DB0702D50B78002B16D1AC23FF33324AAA
S214004640D45CAA3BFF3B1C404B78052B2CD905229B
S214004650D31A5BB28A789A4231DBD31ADBB2A34212
S21400466024D26B461C712CE002236A46137126493D
S2140046700B7A4A7A120213438A7A12041A43CB7AC6
S2140046801B061A432723C95C4B005B189B009B182C
S21400469019795A79120211439A7912040A43DB797E
S2140046A01B061343009328E05BB2D3E7052B02D822
S2140046B06A46137105E005236A46137101E06B46EE
S2140046C01C7111490B7A4A7A120213438A7A120431
S2140046D01A43CB7A1B061A432723C95C4B005B1888
S2140046E09B009B1819795A79120211439A79120481
S2140046F00A43DB791B061343009308226946044BE2
S2140047009847082002B010BD480B0020E07F00004C
S214004710D512010010B514000B7822220D498A56D6
S2140047200A20934200DD10BD0800097A427A120280
S2140047300A43817A09040A43C17A090611435A00DA
S214004740D3189B00C91804222000034B9847082062
S214004750E9E7C046480B0020D512010000B583B03B
S21400476010004B788A78052B0BD90521CB1A5BB243
S2140047709A420CDBD31ADBB2052B04D86A461371B7
S21400478008E05BB2F4E705236A46137102E00023F3
S2140047906A46137111490B7A4A7A120213438A7ACF
S2140047A012041A43CB7A1B061A432723C95C4B0014
S2140047B05B189B009B1819795A79120211439A7953
S2140047C012040A43DB791B0613430093082269464A
S2140047D0034B9847082003B000BDC046480B002096
S2140047E0D5120100F0B5DE4657464E464546E0B5C2
S2140047F085B0009201235B4203930B7899462223EF
S2140048002A4AD756002F40DD167953791B023343C8
S214004810967936043343D67936061E4300239A46E5
S214004820013B98460023002194464A460192C3461F
S21400483004E00131C9B20B00B94223DA4A00B218CB
S2140048401478002CF5D052339B006344587A804687
S214004850987A000245460543D87A000428431B7B15
S2140048601B060343E5D09B45E3D350780007000FB3
S2140048708145DEDB5278120901989042D9DCA246C7
S2140048809B46D6E75346002B0CD1042203A900987A
S214004890074B9847082005B03CBC90469946A24670
S2140048A0AB46F0BD5B460393EFE7C046480B0020DF
S2140048B0D512010000B583B008226846044B98471D
S2140048C0044B5B6869460120984703B000BDC046AC
S2140048D0D5120100E803002000B583B0042201A829
S2140048E0064B9847019B064A94466344054A0820AF
S2140048F0934200D9023003B000BDC046D512010075
S214004900C02571CC80841E0000B583B0042201A8A7
S214004910064B9847019B064A94466344054A08207E
S214004920934200D9023003B000BDC046D512010044
S21400493000EA29C900127A0000B583B0042201A853
S2140049400A4B9847019A0A4B9A420BD0094B0A49E0
S2140049509A4209D00948844663448B42F8D10A201B
S21400496003B000BD0820FBE70820F9E7D5120100D8
S214004970A0D1E336E0DEE636A0700837400D03002F
S214004980F0B583B001AC042220001F4B984727885F
S214004990A6786B46D91C0E701B201C4B984705004A
S2140049A0082803D00A25280003B0F0BD062E1CD028
S2140049B00AD8042EF7D83601F0B201000F31C9B27A
S2140049C03A00134B9847EEE70024072EEBD1114E22
S2140049D000212000B0470134E4B23F2CF8D13A0061
S2140049E0472140200A4B9847DDE70024094E012165
S2140049F02000B0470134E4B23F2CF8D13A004721FA
S214004A004020034B9847CEE7D5120100C13800007E
S214004A10D93E0000793E000030B585B002AC0822D1
S214004A202000204B984701AB22791A7001225A7059
S214004A301D4B5B682100012098470A24082802D0F5
S214004A40200005B030BD01A90D30184B9847040072
S214004A50082801D00A24F3E7154A137A507A000290
S214004A600343907A00041843D37A1B06184302A91E
S214004A700D796B005B199B001B1808781871487835
S214004A80587188789871C978D971FA23FF33D35C46
S214004A90FD214900505C00021843C1B2000A054BD4
S214004AA09847CDE7D5120100E8030020D93700006B
S214004AB0480B0020651E0000F0B5D6464F46464619
S214004AC0C0B582B02623314AD25C314B1341DB0796
S214004AD007D4052A1FD0042A1FD00F2A1FD02D4F17
S214004AE000E02D4F01AC042220002C4B984725886F
S214004AF00A26002D08D06B46991D1B20284B984788
S214004B00060008280DD00A26300002B01CBC9046CD
S214004B109946A246F0BD204FE4E7224FE2E7224F37
S214004B20E0E701AB9C78062C0CD0002CECD12223BD
S214004B30164AD356002BE7DD0123984692462223D9
S214004B4099461CE02223114AD356002BDCDD0024B4
S214004B509046222501212000B8470134E4B243469E
S214004B605B579C42F6DBCFE700212000B8476D0874
S214004B700134E4B253464A469B569C42C4DA434646
S214004B802B42F1D041462000B847F0E7480B002002
S214004B90C07F00001D3F000029410000D512010023
S214004BA04539000081400000793E000070B584B0B1
S214004BB002AC082220003F4B984701AB22791A70BE
S214004BC000225A703C4B5B682100012098470A245B
S214004BD0082802D0200004B070BD01A90D30374B64
S214004BE098470400082801D00A24F3E702AB1D7991
S214004BF02623334AD25C233B1341DB0746D46A00A4
S214004C005219900002A9029D2D4B1A7A5E7A36023E
S214004C1016439A7A12041643DA7A12063243155469
S214004C202E0A121856702E0C96702D0ED5701A7A03
S214004C305D7A2D0215439A7A12041543DA7A120623
S214004C402A4312180D7815714D7855718D78957127
S214004C50C978D1711A7A597A090211439A7A1204DC
S214004C601143DA7A12060A431218D17A0120014358
S214004C70D172FA22FF329A5CFD214900585C00028C
S214004C801043C1B2000A0F4B9847A3E70C4A167AA6
S214004C90537A1B023343967A36043343D67A360663
S214004CA01E436B005B199B00F6180298064B98474C
S214004CB03072A4E7D5120100E8030020D9370000BF
S214004CC0480B0020651E0000693A000070B582B0EF
S214004CD001AC042220002D4B9847A5786B461D702A
S214004CE001236A46537069461520294B98470400ED
S214004CF0082803D00A24200002B070BD69004919B4
S214004D008900244B1A7A587A000210439A7A1204C1
S214004D101043DA7A120602435218157A2800C83071
S214004D20400001AA1818167886715278C271187B4E
S214004D305A7B12020243987B00040243D87B00068B
S214004D4010436A0052199200121800201072507216
S214004D509072D0721D7A5A7A12022A439D7A2D04D6
S214004D602A43DD7A2D0615436D18EA7A04210A4394
S214004D70EA72FA22FF329A5CFD214900585C000272
S214004D801043C1B2000A044B9847B4E7D51201009D
S214004D90D9370000480B0020651E0000F0B5D64647
S214004DA04F464646C0B584B000920B789C462223F8
S214004DB0514AD656002E00DC97E01300107952793F
S214004DC012020243987900040243D8790006104381
S214004DD01F7B5A7B12023A439F7B3F043A43DF7B9A
S214004DE03F06174300250023012252429146424ABD
S214004DF090466246019204E00133DBB21D00B342E6
S214004E0027DA590041180A78002AF5D06A005219A4
S214004E1092004244943215786A0052199200BA18E9
S214004E20157A547A24022543947A24042543D27AA8
S214004E3012062A43E0D04A45DED84D782D072D0FBE
S214004E40AC45D9DB49780909019C8C42D4DC9146F3
S214004E50D2E72949D1235B00CB5CA422FF328A5CCF
S214004E6012021A43D2235B00CB5C1B041A43A62310
S214004E70FF33CB5C1B061343994539D203931E4D73
S214004E802B7C6A7C12021A43AB7C1B041A43EB7C15
S214004E901B0613431879194B98472B7C6A7C120221
S214004EA01A43AB7C1B041A43EB7C1B0613431D788A
S214004EB05A7812022A439D782D042A43DD782D065F
S214004EC01543FA2189000E4B98472D1A039B5D1B4C
S214004ED00395042203A900980A4B9847082004B0BB
S214004EE01CBC90469946A246F0BD01235B429946FB
S214004EF04B460393C3E7C046480B00209D1A0000AC
S214004F000DEF0000D5120100F0B5DE4657464E46BE
S214004F104546E0B587B004AC06222000BC4B984757
S214004F202379002B07D0082007B03CBC9046994652
S214004F30A246AB46F0BDB7490B7A4A7A1202134333
S214004F408A7A12041A43CB7A1B061A432723C85CB4
S214004F5043001B189B009B181F7A7C00E419A400D2
S214004F6004AA1588087B4B7B1B020343887B00043E
S214004F700343C87B000618433E00C83676008E19E9
S214004F80B3799C46F3791B0266463343013B6B4379
S214004F90001903721E0A46721E0C86721B0EC3721E
S214004FA05388013B6B43D12252008B54180A0A00E7
S214004FB0A332FF325070180C90701B0ED3700B7C0F
S214004FC04A7C12021A438B7C1B041A43CB7C1B06BA
S214004FD013431879904B984700239946002824D10C
S214004FE08C4A137B517B09021943937B1B0419439C
S214004FF0D37B1B060B431C19207A637A1B020343E0
S214005000A07A00040343E07A0006184303902123A5
S214005010D35C002B00D18DE000227E4D2E000023B5
S2140050209A46A84621239C4642E07A4D2B7C6A7C11
S21400503012021A43AB7C1B041A43EB7C1B06134379
S2140050401879764B98472B7C6A7C12021A43AB7C05
S2140050501B041A43EB7C1B0613431879704B9847C6
S2140050602B7C6A7C12021A43AB7C1B041A43EB7C33
S2140050701B0613431D785A7812022A439D782D0486
S2140050802A43DD782D061543FA218900654B98479B
S2140050902B1A9946A4E75146197259729972D97219
S2140050A02CE00132D2B2434661465B5C934241D962
S2140050B09742F6D05400A418A4002B7B697B090203
S2140050C01943AB7B1B041943EB7B1B060B431B19D5
S2140050D0187A597A09020143987A00040843D97A63
S2140050E009060143DDD08945D5D24846091A19720A
S2140050F0080A5872080C9872090ED972337B717BB5
S21400510009021943B37B1B041943F37B1B060B43AD
S2140051101C19237A617A09021943A37A1B041943DE
S214005120E37A1B060B4303998B42BAD8002BB8D000
S2140051300393B6E73749D1235B00CB5CA422FF324A
S2140051408A5C12021A43D2235B00CB5C1B041A4310
S214005150A623FF33CB5C1B0613430FD099454BD2D7
S2140051600A0049465B1AD12149005354190AA33252
S214005170FF325170190C91701B0ED370254AD12343
S2140051805B00D15CA423FF33D35C1B020B43D2210C
S2140051904900515C09040B43A621FF31515C090606
S2140051A01943039A914200D211001A4B1A7C587C7C
S2140051B0000210439A7C12041043DA7C1206024363
S2140051C01170080A5070080C9070080ED070FA2201
S2140051D092005143187C5A7C120210439A7C1204A7
S2140051E00243DB7C1B0613431879002300930E4B07
S2140051F000220E4CA04796E6064B0021D122520014
S21400520099549B1800225A709A70DA70B6E7C04616
S214005210D5120100480B0020891A0000F51B00007B
S2140052209D1A00000DEF000031520000F11800003A
S214005230F0B5DE4657464E464546E0B587B080494F
S214005240D1235B00CA5CA423FF33CB5C1B021A434A
S214005250D2235B00CB5C1B041343A622FF328A5C7E
S21400526012061A4305922123CB5C002B00D1DFE007
S214005270002600230493013B03930F0088468C46C8
S21400528000239B468A46212399460CE05A461A720A
S2140052905A729A72DA723FE00136F6B253464A46BE
S2140052A09B5CB3425AD97100891989003B7B7A7B93
S2140052B012021A43BB7B1B041A43FB7B1B061343D9
S2140052C05B181A7A587A000210439A7A120410432E
S2140052D0DA7A12060243DFD04046057C447C24027C
S2140052E02543807C000405434046C07C00062843D6
S2140052F0047845782D022543847824042543C47811
S21400530024062C43A242C1D9121B1A72100A5872E4
S214005310100C9872120EDA7263461B7B6246527B42
S21400532012021A4363469B7B1B041A436346DB7BCD
S2140053301B06134359180B7A4A7A12021A438B7AC1
S2140053401B041A43CB7A1B061343039A9342A3D833
S214005350002BA1D00393012304939DE7059B002B0C
S21400536031D037490B7C4A7C12021A438B7C1B04D3
S2140053701A43CB7C1B06134319785A7812020A4349
S214005380997809040A43D97809061143059A8A428E
S2140053900FD9511A2A4BD122520099540A0AA33324
S2140053A0FF335A700A0C9A700A0EDA7000290ED172
S2140053B009E0234B0021D122520099549B18002269
S2140053C05A709A70DA70049B002B2AD00021039A38
S2140053D0914200D211001A4B1A7C587C00021043EE
S2140053E09A7C12041043DA7C120602431170080AF3
S2140053F05070080C9070080ED070FA22920051433C
S214005400187C5A7C120210439A7C12040243DB7CFE
S2140054101B0613431879002300930A4B00220A4CFC
S214005420A04707B03CBC90469946A246AB46F0BDA6
S214005430059B002BF5D000230493013B039390E7D4
S214005440480B002031520000F1180000F0B5DE468F
S21400545057464E464546E0B585B0714A2723D45C8C
S214005460230052339B00D3181900322058720023B1
S2140054708B72CB720B739623FF33D05C694B9847C5
S21400548000282FD16648230052339B00C318597A50
S2140054909A7A12021143DA7A12040A43197B090631
S2140054A0114389462223C3569846002B00DC8DE024
S2140054B000239A4601330393594A2723D05C117977
S2140054C053791B020B43917909040B43D1790906E2
S2140054D019430026002200239C46534602938B461F
S2140054E0454639E04E4C9625FF35605D4E4B984755
S2140054F0605D4E4B98472223E3569846002B68DDA6
S214005500474A9223FF33D45C0133D35C1B02234308
S2140055109421FF31545C240423430131545C240657
S2140055201C43FA218900424B9847231A9A460123C6
S2140055305B42994600230393BEE75236B600384BCB
S2140055409846464461467172B172F1723173013207
S214005550D2B21600AA4236DA9042F8D05300594624
S2140055605C5C002CF3D0330052339B002C4FB846C3
S21400557043445F7ABA469F7A3F02B846574641464A
S2140055800F43D97A09040F431B7B1B063B43DED02F
S214005590029FBB42D1D9DB1B5236B6002049884653
S2140055A0464409218846B04473721E0A41464E702E
S2140055B01E0C8E701E0ECE704B45C8D8002BC6D063
S2140055C099460394C3E7039B002B02D04B46002B5F
S2140055D007D1082005B03CBC90469946A246AB468B
S2140055E0F0BD0F4B9222FF32494699544A46110AA3
S2140055F01A009232FF3251704946090C91704946A2
S214005600090ED170FA2189004A4651439622FF328C
S214005610985C00230093074B0022074CA047D8E76E
S214005620480B0020891A0000F51B00009D1A000098
S2140056300DEF00003D560000F1180000F0B5DE4604
S21400564057464E464546E0B585B022234A4AD656CA
S214005650002E6ADD13001579527912022A439D79CD
S2140056602D042A43DD792D0615439222FF329F5CD6
S21400567001329A5C12023A439421FF315F5C3F0488
S2140056803A4301315F5C3F0617430397002000232F
S21400569000229146013A9046002294460EE052308F
S2140056A08000354A92465044614641728172C1720A
S2140056B001730133DBB21800B34233DA5A00545D8B
S2140056C0002CF6D00200523292002B498A465244F1
S2140056D0577ABB46977A3F02BA465F4651460F4313
S2140056E0D17A09040F43127B12063A43E1D0039F96
S2140056F0BA42D4D9D21B523080001F498A46504441
S21400570009218A4682444272100A51464870100C9B
S2140057108870100EC8704245CBD8002AC9D0A14662
S2140057209046C6E74B46002B06D105B03CBC9046DB
S2140057309946A246AB46F0BD0F4B9222FF32414639
S21400574099544246110A1A009232FF32517041466D
S214005750090C91704146090ED170FA218900424623
S21400576051439622FF32985C00230093034B00229D
S214005770034CA047D9E7C046480B00203D56000022
S214005780F11800004A780F2313400749097F0A20C2
S2140057908B4200D9704712090A208A42FAD802388A
S2140057A09342F7D90230F5E7480B0020F0B5C6461D
S2140057B000B582B00D784E7801AB1D7001225A708C
S2140057C01220254B98470A24082804D0200002B04F
S2140057D004BC9046F0BD01A90D30204B984704004C
S2140057E0082801D00A24F1E71D4F3B797A79120286
S2140057F01A43BB791B041A43FB791B0613436A0042
S214005800904643445E70F823FF33FB5CFC22520054
S214005810B85C00021843C1B2000A124EB0473B7A89
S2140058207A7A12021A43BB7A1B041A43FB7A1B06C7
S21400583013434544AD005D19EB7A02221343EB7225
S214005840FA23FF33FB5CFD225200B85C00021843CB
S214005850C1B2000AB047B9E785570000D937000043
S214005860480B0020651E000030B50B781649097FEE
S2140058700A20994215D2AC21FF31134C615CC9074E
S21400588011D4114D29786C7824020C43A9780904A8
S2140058900C43E97809062143DB005B189B781370FC
S2140058A030BD0238E7E725002178647824020C43EF
S2140058B0A97809040C43E97809062143DB00591846
